{
  "_format": "hh-sol-artifact-1",
  "contractName": "ChainBattles",
  "sourceName": "contracts/ChainBattles.sol",
  "abi": [
    {
      "inputs": [],
      "stateMutability": "nonpayable",
      "type": "constructor"
    },
    {
      "anonymous": false,
      "inputs": [
        {
          "indexed": true,
          "internalType": "address",
          "name": "owner",
          "type": "address"
        },
        {
          "indexed": true,
          "internalType": "address",
          "name": "approved",
          "type": "address"
        },
        {
          "indexed": true,
          "internalType": "uint256",
          "name": "tokenId",
          "type": "uint256"
        }
      ],
      "name": "Approval",
      "type": "event"
    },
    {
      "anonymous": false,
      "inputs": [
        {
          "indexed": true,
          "internalType": "address",
          "name": "owner",
          "type": "address"
        },
        {
          "indexed": true,
          "internalType": "address",
          "name": "operator",
          "type": "address"
        },
        {
          "indexed": false,
          "internalType": "bool",
          "name": "approved",
          "type": "bool"
        }
      ],
      "name": "ApprovalForAll",
      "type": "event"
    },
    {
      "anonymous": false,
      "inputs": [
        {
          "indexed": true,
          "internalType": "address",
          "name": "from",
          "type": "address"
        },
        {
          "indexed": true,
          "internalType": "address",
          "name": "to",
          "type": "address"
        },
        {
          "indexed": true,
          "internalType": "uint256",
          "name": "tokenId",
          "type": "uint256"
        }
      ],
      "name": "Transfer",
      "type": "event"
    },
    {
      "inputs": [
        {
          "internalType": "address",
          "name": "to",
          "type": "address"
        },
        {
          "internalType": "uint256",
          "name": "tokenId",
          "type": "uint256"
        }
      ],
      "name": "approve",
      "outputs": [],
      "stateMutability": "nonpayable",
      "type": "function"
    },
    {
      "inputs": [
        {
          "internalType": "address",
          "name": "owner",
          "type": "address"
        }
      ],
      "name": "balanceOf",
      "outputs": [
        {
          "internalType": "uint256",
          "name": "",
          "type": "uint256"
        }
      ],
      "stateMutability": "view",
      "type": "function"
    },
    {
      "inputs": [
        {
          "internalType": "uint256",
          "name": "tokenId",
          "type": "uint256"
        }
      ],
      "name": "generateCharacter",
      "outputs": [
        {
          "internalType": "string",
          "name": "",
          "type": "string"
        }
      ],
      "stateMutability": "view",
      "type": "function"
    },
    {
      "inputs": [
        {
          "internalType": "uint256",
          "name": "tokenId",
          "type": "uint256"
        }
      ],
      "name": "getApproved",
      "outputs": [
        {
          "internalType": "address",
          "name": "",
          "type": "address"
        }
      ],
      "stateMutability": "view",
      "type": "function"
    },
    {
      "inputs": [
        {
          "internalType": "uint256",
          "name": "tokenId",
          "type": "uint256"
        }
      ],
      "name": "getLevels",
      "outputs": [
        {
          "internalType": "string",
          "name": "",
          "type": "string"
        }
      ],
      "stateMutability": "view",
      "type": "function"
    },
    {
      "inputs": [
        {
          "internalType": "uint256",
          "name": "tokenId",
          "type": "uint256"
        }
      ],
      "name": "getLife",
      "outputs": [
        {
          "internalType": "string",
          "name": "",
          "type": "string"
        }
      ],
      "stateMutability": "view",
      "type": "function"
    },
    {
      "inputs": [
        {
          "internalType": "uint256",
          "name": "tokenId",
          "type": "uint256"
        }
      ],
      "name": "getSpeed",
      "outputs": [
        {
          "internalType": "string",
          "name": "",
          "type": "string"
        }
      ],
      "stateMutability": "view",
      "type": "function"
    },
    {
      "inputs": [
        {
          "internalType": "uint256",
          "name": "tokenId",
          "type": "uint256"
        }
      ],
      "name": "getStrength",
      "outputs": [
        {
          "internalType": "string",
          "name": "",
          "type": "string"
        }
      ],
      "stateMutability": "view",
      "type": "function"
    },
    {
      "inputs": [
        {
          "internalType": "uint256",
          "name": "tokenId",
          "type": "uint256"
        }
      ],
      "name": "getTokenURI",
      "outputs": [
        {
          "internalType": "string",
          "name": "",
          "type": "string"
        }
      ],
      "stateMutability": "view",
      "type": "function"
    },
    {
      "inputs": [
        {
          "internalType": "address",
          "name": "owner",
          "type": "address"
        },
        {
          "internalType": "address",
          "name": "operator",
          "type": "address"
        }
      ],
      "name": "isApprovedForAll",
      "outputs": [
        {
          "internalType": "bool",
          "name": "",
          "type": "bool"
        }
      ],
      "stateMutability": "view",
      "type": "function"
    },
    {
      "inputs": [],
      "name": "mint",
      "outputs": [],
      "stateMutability": "nonpayable",
      "type": "function"
    },
    {
      "inputs": [],
      "name": "name",
      "outputs": [
        {
          "internalType": "string",
          "name": "",
          "type": "string"
        }
      ],
      "stateMutability": "view",
      "type": "function"
    },
    {
      "inputs": [
        {
          "internalType": "uint256",
          "name": "tokenId",
          "type": "uint256"
        }
      ],
      "name": "ownerOf",
      "outputs": [
        {
          "internalType": "address",
          "name": "",
          "type": "address"
        }
      ],
      "stateMutability": "view",
      "type": "function"
    },
    {
      "inputs": [
        {
          "internalType": "address",
          "name": "from",
          "type": "address"
        },
        {
          "internalType": "address",
          "name": "to",
          "type": "address"
        },
        {
          "internalType": "uint256",
          "name": "tokenId",
          "type": "uint256"
        }
      ],
      "name": "safeTransferFrom",
      "outputs": [],
      "stateMutability": "nonpayable",
      "type": "function"
    },
    {
      "inputs": [
        {
          "internalType": "address",
          "name": "from",
          "type": "address"
        },
        {
          "internalType": "address",
          "name": "to",
          "type": "address"
        },
        {
          "internalType": "uint256",
          "name": "tokenId",
          "type": "uint256"
        },
        {
          "internalType": "bytes",
          "name": "data",
          "type": "bytes"
        }
      ],
      "name": "safeTransferFrom",
      "outputs": [],
      "stateMutability": "nonpayable",
      "type": "function"
    },
    {
      "inputs": [
        {
          "internalType": "address",
          "name": "operator",
          "type": "address"
        },
        {
          "internalType": "bool",
          "name": "approved",
          "type": "bool"
        }
      ],
      "name": "setApprovalForAll",
      "outputs": [],
      "stateMutability": "nonpayable",
      "type": "function"
    },
    {
      "inputs": [
        {
          "internalType": "uint256",
          "name": "",
          "type": "uint256"
        }
      ],
      "name": "stats",
      "outputs": [
        {
          "internalType": "uint256",
          "name": "levels",
          "type": "uint256"
        },
        {
          "internalType": "uint256",
          "name": "speed",
          "type": "uint256"
        },
        {
          "internalType": "uint256",
          "name": "strength",
          "type": "uint256"
        },
        {
          "internalType": "uint256",
          "name": "life",
          "type": "uint256"
        }
      ],
      "stateMutability": "view",
      "type": "function"
    },
    {
      "inputs": [
        {
          "internalType": "bytes4",
          "name": "interfaceId",
          "type": "bytes4"
        }
      ],
      "name": "supportsInterface",
      "outputs": [
        {
          "internalType": "bool",
          "name": "",
          "type": "bool"
        }
      ],
      "stateMutability": "view",
      "type": "function"
    },
    {
      "inputs": [],
      "name": "symbol",
      "outputs": [
        {
          "internalType": "string",
          "name": "",
          "type": "string"
        }
      ],
      "stateMutability": "view",
      "type": "function"
    },
    {
      "inputs": [
        {
          "internalType": "uint256",
          "name": "",
          "type": "uint256"
        }
      ],
      "name": "tokenIdToStats",
      "outputs": [
        {
          "internalType": "uint256",
          "name": "",
          "type": "uint256"
        }
      ],
      "stateMutability": "view",
      "type": "function"
    },
    {
      "inputs": [
        {
          "internalType": "uint256",
          "name": "tokenId",
          "type": "uint256"
        }
      ],
      "name": "tokenURI",
      "outputs": [
        {
          "internalType": "string",
          "name": "",
          "type": "string"
        }
      ],
      "stateMutability": "view",
      "type": "function"
    },
    {
      "inputs": [
        {
          "internalType": "uint256",
          "name": "tokenId",
          "type": "uint256"
        }
      ],
      "name": "train",
      "outputs": [],
      "stateMutability": "nonpayable",
      "type": "function"
    },
    {
      "inputs": [
        {
          "internalType": "address",
          "name": "from",
          "type": "address"
        },
        {
          "internalType": "address",
          "name": "to",
          "type": "address"
        },
        {
          "internalType": "uint256",
          "name": "tokenId",
          "type": "uint256"
        }
      ],
      "name": "transferFrom",
      "outputs": [],
      "stateMutability": "nonpayable",
      "type": "function"
    }
  ],
  "bytecode": "0x60806040523480156200001157600080fd5b506040518060400160405280600d81526020017f436861696e20426174746c6573000000000000000000000000000000000000008152506040518060400160405280600581526020017f4342544c5300000000000000000000000000000000000000000000000000000081525081600090816200008f919062000324565b508060019081620000a1919062000324565b5050506200040b565b600081519050919050565b7f4e487b7100000000000000000000000000000000000000000000000000000000600052604160045260246000fd5b7f4e487b7100000000000000000000000000000000000000000000000000000000600052602260045260246000fd5b600060028204905060018216806200012c57607f821691505b602082108103620001425762000141620000e4565b5b50919050565b60008190508160005260206000209050919050565b60006020601f8301049050919050565b600082821b905092915050565b600060088302620001ac7fffffffffffffffffffffffffffffffffffffffffffffffffffffffffffffffff826200016d565b620001b886836200016d565b95508019841693508086168417925050509392505050565b6000819050919050565b6000819050919050565b600062000205620001ff620001f984620001d0565b620001da565b620001d0565b9050919050565b6000819050919050565b6200022183620001e4565b6200023962000230826200020c565b8484546200017a565b825550505050565b600090565b6200025062000241565b6200025d81848462000216565b505050565b5b8181101562000285576200027960008262000246565b60018101905062000263565b5050565b601f821115620002d4576200029e8162000148565b620002a9846200015d565b81016020851015620002b9578190505b620002d1620002c8856200015d565b83018262000262565b50505b505050565b600082821c905092915050565b6000620002f960001984600802620002d9565b1980831691505092915050565b6000620003148383620002e6565b9150826002028217905092915050565b6200032f82620000aa565b67ffffffffffffffff8111156200034b576200034a620000b5565b5b62000357825462000113565b6200036482828562000289565b600060209050601f8311600181146200039c576000841562000387578287015190505b62000393858262000306565b86555062000403565b601f198416620003ac8662000148565b60005b82811015620003d657848901518255600182019150602085019450602081019050620003af565b86831015620003f65784890151620003f2601f891682620002e6565b8355505b6001600288020188555050505b505050505050565b613b69806200041b6000396000f3fe608060405234801561001057600080fd5b506004361061014d5760003560e01c80634b93f753116100c3578063b88d4fde1161007c578063b88d4fde146103d7578063c87b56dd146103f3578063c87bfc7f14610423578063e53fbda614610453578063e985e9c514610483578063f43785f9146104b35761014d565b80634b93f753146102da5780636352211e1461030a57806370a082311461033a57806395d89b411461036a578063a22cb46514610388578063ad217ae5146103a45761014d565b806311251f1c1161011557806311251f1c1461021c5780631249c58b1461024c57806323b872dd14610256578063368004ed146102725780633bb3a24d1461028e57806342842e0e146102be5761014d565b806301ffc9a71461015257806306fdde0314610182578063081812fc146101a0578063095ea7b3146101d05780630daefed5146101ec575b600080fd5b61016c60048036038101906101679190611e7e565b6104e3565b6040516101799190611ec6565b60405180910390f35b61018a6105c5565b6040516101979190611f71565b60405180910390f35b6101ba60048036038101906101b59190611fc9565b610657565b6040516101c79190612037565b60405180910390f35b6101ea60048036038101906101e5919061207e565b61069d565b005b61020660048036038101906102019190611fc9565b6107b4565b6040516102139190611f71565b60405180910390f35b61023660048036038101906102319190611fc9565b610830565b6040516102439190611f71565b60405180910390f35b61025461085b565b005b610270600480360381019061026b91906120be565b6108ab565b005b61028c60048036038101906102879190611fc9565b61090b565b005b6102a860048036038101906102a39190611fc9565b610a1b565b6040516102b59190611f71565b60405180910390f35b6102d860048036038101906102d391906120be565b610a83565b005b6102f460048036038101906102ef9190611fc9565b610aa3565b6040516103019190611f71565b60405180910390f35b610324600480360381019061031f9190611fc9565b610ace565b6040516103319190612037565b60405180910390f35b610354600480360381019061034f9190612111565b610b7f565b604051610361919061214d565b60405180910390f35b610372610c36565b60405161037f9190611f71565b60405180910390f35b6103a2600480360381019061039d9190612194565b610cc8565b005b6103be60048036038101906103b99190611fc9565b610cde565b6040516103ce94939291906121d4565b60405180910390f35b6103f160048036038101906103ec919061234e565b610d1e565b005b61040d60048036038101906104089190611fc9565b610d80565b60405161041a9190611f71565b60405180910390f35b61043d60048036038101906104389190611fc9565b610e92565b60405161044a919061214d565b60405180910390f35b61046d60048036038101906104689190611fc9565b610eaa565b60405161047a9190611f71565b60405180910390f35b61049d600480360381019061049891906123d1565b610ed5565b6040516104aa9190611ec6565b60405180910390f35b6104cd60048036038101906104c89190611fc9565b610f69565b6040516104da9190611f71565b60405180910390f35b60007f80ac58cd000000000000000000000000000000000000000000000000000000007bffffffffffffffffffffffffffffffffffffffffffffffffffffffff1916827bffffffffffffffffffffffffffffffffffffffffffffffffffffffff191614806105ae57507f5b5e139f000000000000000000000000000000000000000000000000000000007bffffffffffffffffffffffffffffffffffffffffffffffffffffffff1916827bffffffffffffffffffffffffffffffffffffffffffffffffffffffff1916145b806105be57506105bd82610f94565b5b9050919050565b6060600080546105d490612440565b80601f016020809104026020016040519081016040528092919081815260200182805461060090612440565b801561064d5780601f106106225761010080835404028352916020019161064d565b820191906000526020600020905b81548152906001019060200180831161063057829003601f168201915b5050505050905090565b600061066282610ffe565b6004600083815260200190815260200160002060009054906101000a900473ffffffffffffffffffffffffffffffffffffffff169050919050565b60006106a882610ace565b90508073ffffffffffffffffffffffffffffffffffffffff168373ffffffffffffffffffffffffffffffffffffffff1603610718576040517f08c379a000000000000000000000000000000000000000000000000000000000815260040161070f906124e3565b60405180910390fd5b8073ffffffffffffffffffffffffffffffffffffffff16610737611049565b73ffffffffffffffffffffffffffffffffffffffff161480610766575061076581610760611049565b610ed5565b5b6107a5576040517f08c379a000000000000000000000000000000000000000000000000000000000815260040161079c90612575565b60405180910390fd5b6107af8383611051565b505050565b606060006107c183610f69565b6107ca84610aa3565b6107d385610eaa565b6107dc86610830565b6040516020016107ef9493929190612add565b60405160208183030381529060405290506108098161110a565b6040516020016108199190612c38565b604051602081830303815290604052915050919050565b60606000600960008481526020019081526020016000205490506108538161126d565b915050919050565b61086560076113cd565b600061087160076113e3565b905061087d33826113f1565b600060096000838152602001908152602001600020819055506108a8816108a383610a1b565b61140f565b50565b6108bc6108b6611049565b8261147c565b6108fb576040517f08c379a00000000000000000000000000000000000000000000000000000000081526004016108f290612ccc565b60405180910390fd5b610906838383611511565b505050565b61091481611777565b610953576040517f08c379a000000000000000000000000000000000000000000000000000000000815260040161094a90612d38565b60405180910390fd5b3373ffffffffffffffffffffffffffffffffffffffff1661097382610ace565b73ffffffffffffffffffffffffffffffffffffffff16146109c9576040517f08c379a00000000000000000000000000000000000000000000000000000000081526004016109c090612dca565b60405180910390fd5b6000600960008381526020019081526020016000205490506001816109ee9190612e19565b6009600084815260200190815260200160002081905550610a1782610a1284610a1b565b61140f565b5050565b60606000610a288361126d565b610a31846107b4565b604051602001610a42929190613087565b6040516020818303038152906040529050610a5c8161110a565b604051602001610a6c9190613144565b604051602081830303815290604052915050919050565b610a9e83838360405180602001604052806000815250610d1e565b505050565b6060600060096000848152602001908152602001600020549050610ac68161126d565b915050919050565b6000806002600084815260200190815260200160002060009054906101000a900473ffffffffffffffffffffffffffffffffffffffff169050600073ffffffffffffffffffffffffffffffffffffffff168173ffffffffffffffffffffffffffffffffffffffff1603610b76576040517f08c379a0000000000000000000000000000000000000000000000000000000008152600401610b6d906131b2565b60405180910390fd5b80915050919050565b60008073ffffffffffffffffffffffffffffffffffffffff168273ffffffffffffffffffffffffffffffffffffffff1603610bef576040517f08c379a0000000000000000000000000000000000000000000000000000000008152600401610be690613244565b60405180910390fd5b600360008373ffffffffffffffffffffffffffffffffffffffff1673ffffffffffffffffffffffffffffffffffffffff168152602001908152602001600020549050919050565b606060018054610c4590612440565b80601f0160208091040260200160405190810160405280929190818152602001828054610c7190612440565b8015610cbe5780601f10610c9357610100808354040283529160200191610cbe565b820191906000526020600020905b815481529060010190602001808311610ca157829003601f168201915b5050505050905090565b610cda610cd3611049565b83836117e3565b5050565b60088181548110610cee57600080fd5b90600052602060002090600402016000915090508060000154908060010154908060020154908060030154905084565b610d2f610d29611049565b8361147c565b610d6e576040517f08c379a0000000000000000000000000000000000000000000000000000000008152600401610d6590612ccc565b60405180910390fd5b610d7a8484848461194f565b50505050565b6060610d8b82610ffe565b6000600660008481526020019081526020016000208054610dab90612440565b80601f0160208091040260200160405190810160405280929190818152602001828054610dd790612440565b8015610e245780601f10610df957610100808354040283529160200191610e24565b820191906000526020600020905b815481529060010190602001808311610e0757829003601f168201915b505050505090506000610e356119ab565b90506000815103610e4a578192505050610e8d565b600082511115610e7f578082604051602001610e67929190613264565b60405160208183030381529060405292505050610e8d565b610e88846119c2565b925050505b919050565b60096020528060005260406000206000915090505481565b6060600060096000848152602001908152602001600020549050610ecd8161126d565b915050919050565b6000600560008473ffffffffffffffffffffffffffffffffffffffff1673ffffffffffffffffffffffffffffffffffffffff16815260200190815260200160002060008373ffffffffffffffffffffffffffffffffffffffff1673ffffffffffffffffffffffffffffffffffffffff16815260200190815260200160002060009054906101000a900460ff16905092915050565b6060600060096000848152602001908152602001600020549050610f8c8161126d565b915050919050565b60007f01ffc9a7000000000000000000000000000000000000000000000000000000007bffffffffffffffffffffffffffffffffffffffffffffffffffffffff1916827bffffffffffffffffffffffffffffffffffffffffffffffffffffffff1916149050919050565b61100781611777565b611046576040517f08c379a000000000000000000000000000000000000000000000000000000000815260040161103d906131b2565b60405180910390fd5b50565b600033905090565b816004600083815260200190815260200160002060006101000a81548173ffffffffffffffffffffffffffffffffffffffff021916908373ffffffffffffffffffffffffffffffffffffffff160217905550808273ffffffffffffffffffffffffffffffffffffffff166110c483610ace565b73ffffffffffffffffffffffffffffffffffffffff167f8c5be1e5ebec7d5bd14f71427d1e84f3dd0314c0f7b2291e5b200ac8c7c3b92560405160405180910390a45050565b6060600082510361112c57604051806020016040528060008152509050611268565b6000604051806060016040528060408152602001613af4604091399050600060036002855161115b9190612e19565b61116591906132b7565b600461117191906132e8565b67ffffffffffffffff81111561118a57611189612223565b5b6040519080825280601f01601f1916602001820160405280156111bc5781602001600182028036833780820191505090505b509050600182016020820185865187015b80821015611228576003820191508151603f8160121c168501518453600184019350603f81600c1c168501518453600184019350603f8160061c168501518453600184019350603f81168501518453600184019350506111cd565b505060038651066001811461124457600281146112575761125f565b603d6001830353603d600283035361125f565b603d60018303535b50505080925050505b919050565b6060600082036112b4576040518060400160405280600181526020017f300000000000000000000000000000000000000000000000000000000000000081525090506113c8565b600082905060005b600082146112e65780806112cf9061332a565b915050600a826112df91906132b7565b91506112bc565b60008167ffffffffffffffff81111561130257611301612223565b5b6040519080825280601f01601f1916602001820160405280156113345781602001600182028036833780820191505090505b5090505b600085146113c15760018261134d9190613372565b9150600a8561135c91906133a6565b60306113689190612e19565b60f81b81838151811061137e5761137d6133d7565b5b60200101907effffffffffffffffffffffffffffffffffffffffffffffffffffffffffffff1916908160001a905350600a856113ba91906132b7565b9450611338565b8093505050505b919050565b6001816000016000828254019250508190555050565b600081600001549050919050565b61140b828260405180602001604052806000815250611a2a565b5050565b61141882611777565b611457576040517f08c379a000000000000000000000000000000000000000000000000000000000815260040161144e90613478565b60405180910390fd5b806006600084815260200190815260200160002090816114779190613644565b505050565b60008061148883610ace565b90508073ffffffffffffffffffffffffffffffffffffffff168473ffffffffffffffffffffffffffffffffffffffff1614806114ca57506114c98185610ed5565b5b8061150857508373ffffffffffffffffffffffffffffffffffffffff166114f084610657565b73ffffffffffffffffffffffffffffffffffffffff16145b91505092915050565b8273ffffffffffffffffffffffffffffffffffffffff1661153182610ace565b73ffffffffffffffffffffffffffffffffffffffff1614611587576040517f08c379a000000000000000000000000000000000000000000000000000000000815260040161157e90613788565b60405180910390fd5b600073ffffffffffffffffffffffffffffffffffffffff168273ffffffffffffffffffffffffffffffffffffffff16036115f6576040517f08c379a00000000000000000000000000000000000000000000000000000000081526004016115ed9061381a565b60405180910390fd5b611601838383611a85565b61160c600082611051565b6001600360008573ffffffffffffffffffffffffffffffffffffffff1673ffffffffffffffffffffffffffffffffffffffff168152602001908152602001600020600082825461165c9190613372565b925050819055506001600360008473ffffffffffffffffffffffffffffffffffffffff1673ffffffffffffffffffffffffffffffffffffffff16815260200190815260200160002060008282546116b39190612e19565b92505081905550816002600083815260200190815260200160002060006101000a81548173ffffffffffffffffffffffffffffffffffffffff021916908373ffffffffffffffffffffffffffffffffffffffff160217905550808273ffffffffffffffffffffffffffffffffffffffff168473ffffffffffffffffffffffffffffffffffffffff167fddf252ad1be2c89b69c2b068fc378daa952ba7f163c4a11628f55a4df523b3ef60405160405180910390a4611772838383611a8a565b505050565b60008073ffffffffffffffffffffffffffffffffffffffff166002600084815260200190815260200160002060009054906101000a900473ffffffffffffffffffffffffffffffffffffffff1673ffffffffffffffffffffffffffffffffffffffff1614159050919050565b8173ffffffffffffffffffffffffffffffffffffffff168373ffffffffffffffffffffffffffffffffffffffff1603611851576040517f08c379a000000000000000000000000000000000000000000000000000000000815260040161184890613886565b60405180910390fd5b80600560008573ffffffffffffffffffffffffffffffffffffffff1673ffffffffffffffffffffffffffffffffffffffff16815260200190815260200160002060008473ffffffffffffffffffffffffffffffffffffffff1673ffffffffffffffffffffffffffffffffffffffff16815260200190815260200160002060006101000a81548160ff0219169083151502179055508173ffffffffffffffffffffffffffffffffffffffff168373ffffffffffffffffffffffffffffffffffffffff167f17307eab39ab6107e8899845ad3d59bd9653f200f220920489ca2b5937696c31836040516119429190611ec6565b60405180910390a3505050565b61195a848484611511565b61196684848484611a8f565b6119a5576040517f08c379a000000000000000000000000000000000000000000000000000000000815260040161199c90613918565b60405180910390fd5b50505050565b606060405180602001604052806000815250905090565b60606119cd82610ffe565b60006119d76119ab565b905060008151116119f75760405180602001604052806000815250611a22565b80611a018461126d565b604051602001611a12929190613264565b6040516020818303038152906040525b915050919050565b611a348383611c16565b611a416000848484611a8f565b611a80576040517f08c379a0000000000000000000000000000000000000000000000000000000008152600401611a7790613918565b60405180910390fd5b505050565b505050565b505050565b6000611ab08473ffffffffffffffffffffffffffffffffffffffff16611def565b15611c09578373ffffffffffffffffffffffffffffffffffffffff1663150b7a02611ad9611049565b8786866040518563ffffffff1660e01b8152600401611afb949392919061398d565b6020604051808303816000875af1925050508015611b3757506040513d601f19601f82011682018060405250810190611b3491906139ee565b60015b611bb9573d8060008114611b67576040519150601f19603f3d011682016040523d82523d6000602084013e611b6c565b606091505b506000815103611bb1576040517f08c379a0000000000000000000000000000000000000000000000000000000008152600401611ba890613918565b60405180910390fd5b805181602001fd5b63150b7a0260e01b7bffffffffffffffffffffffffffffffffffffffffffffffffffffffff1916817bffffffffffffffffffffffffffffffffffffffffffffffffffffffff191614915050611c0e565b600190505b949350505050565b600073ffffffffffffffffffffffffffffffffffffffff168273ffffffffffffffffffffffffffffffffffffffff1603611c85576040517f08c379a0000000000000000000000000000000000000000000000000000000008152600401611c7c90613a67565b60405180910390fd5b611c8e81611777565b15611cce576040517f08c379a0000000000000000000000000000000000000000000000000000000008152600401611cc590613ad3565b60405180910390fd5b611cda60008383611a85565b6001600360008473ffffffffffffffffffffffffffffffffffffffff1673ffffffffffffffffffffffffffffffffffffffff1681526020019081526020016000206000828254611d2a9190612e19565b92505081905550816002600083815260200190815260200160002060006101000a81548173ffffffffffffffffffffffffffffffffffffffff021916908373ffffffffffffffffffffffffffffffffffffffff160217905550808273ffffffffffffffffffffffffffffffffffffffff16600073ffffffffffffffffffffffffffffffffffffffff167fddf252ad1be2c89b69c2b068fc378daa952ba7f163c4a11628f55a4df523b3ef60405160405180910390a4611deb60008383611a8a565b5050565b6000808273ffffffffffffffffffffffffffffffffffffffff163b119050919050565b6000604051905090565b600080fd5b600080fd5b60007fffffffff0000000000000000000000000000000000000000000000000000000082169050919050565b611e5b81611e26565b8114611e6657600080fd5b50565b600081359050611e7881611e52565b92915050565b600060208284031215611e9457611e93611e1c565b5b6000611ea284828501611e69565b91505092915050565b60008115159050919050565b611ec081611eab565b82525050565b6000602082019050611edb6000830184611eb7565b92915050565b600081519050919050565b600082825260208201905092915050565b60005b83811015611f1b578082015181840152602081019050611f00565b60008484015250505050565b6000601f19601f8301169050919050565b6000611f4382611ee1565b611f4d8185611eec565b9350611f5d818560208601611efd565b611f6681611f27565b840191505092915050565b60006020820190508181036000830152611f8b8184611f38565b905092915050565b6000819050919050565b611fa681611f93565b8114611fb157600080fd5b50565b600081359050611fc381611f9d565b92915050565b600060208284031215611fdf57611fde611e1c565b5b6000611fed84828501611fb4565b91505092915050565b600073ffffffffffffffffffffffffffffffffffffffff82169050919050565b600061202182611ff6565b9050919050565b61203181612016565b82525050565b600060208201905061204c6000830184612028565b92915050565b61205b81612016565b811461206657600080fd5b50565b60008135905061207881612052565b92915050565b6000806040838503121561209557612094611e1c565b5b60006120a385828601612069565b92505060206120b485828601611fb4565b9150509250929050565b6000806000606084860312156120d7576120d6611e1c565b5b60006120e586828701612069565b93505060206120f686828701612069565b925050604061210786828701611fb4565b9150509250925092565b60006020828403121561212757612126611e1c565b5b600061213584828501612069565b91505092915050565b61214781611f93565b82525050565b6000602082019050612162600083018461213e565b92915050565b61217181611eab565b811461217c57600080fd5b50565b60008135905061218e81612168565b92915050565b600080604083850312156121ab576121aa611e1c565b5b60006121b985828601612069565b92505060206121ca8582860161217f565b9150509250929050565b60006080820190506121e9600083018761213e565b6121f6602083018661213e565b612203604083018561213e565b612210606083018461213e565b95945050505050565b600080fd5b600080fd5b7f4e487b7100000000000000000000000000000000000000000000000000000000600052604160045260246000fd5b61225b82611f27565b810181811067ffffffffffffffff8211171561227a57612279612223565b5b80604052505050565b600061228d611e12565b90506122998282612252565b919050565b600067ffffffffffffffff8211156122b9576122b8612223565b5b6122c282611f27565b9050602081019050919050565b82818337600083830152505050565b60006122f16122ec8461229e565b612283565b90508281526020810184848401111561230d5761230c61221e565b5b6123188482856122cf565b509392505050565b600082601f83011261233557612334612219565b5b81356123458482602086016122de565b91505092915050565b6000806000806080858703121561236857612367611e1c565b5b600061237687828801612069565b945050602061238787828801612069565b935050604061239887828801611fb4565b925050606085013567ffffffffffffffff8111156123b9576123b8611e21565b5b6123c587828801612320565b91505092959194509250565b600080604083850312156123e8576123e7611e1c565b5b60006123f685828601612069565b925050602061240785828601612069565b9150509250929050565b7f4e487b7100000000000000000000000000000000000000000000000000000000600052602260045260246000fd5b6000600282049050600182168061245857607f821691505b60208210810361246b5761246a612411565b5b50919050565b7f4552433732313a20617070726f76616c20746f2063757272656e74206f776e6560008201527f7200000000000000000000000000000000000000000000000000000000000000602082015250565b60006124cd602183611eec565b91506124d882612471565b604082019050919050565b600060208201905081810360008301526124fc816124c0565b9050919050565b7f4552433732313a20617070726f76652063616c6c6572206973206e6f7420746f60008201527f6b656e206f776e6572206e6f7220617070726f76656420666f7220616c6c0000602082015250565b600061255f603e83611eec565b915061256a82612503565b604082019050919050565b6000602082019050818103600083015261258e81612552565b9050919050565b600081905092915050565b7f3c73766720786d6c6e733d22687474703a2f2f7777772e77332e6f72672f323060008201527f30302f73766722207072657365727665417370656374526174696f3d22784d6960208201527f6e594d696e206d656574222076696577426f783d22302030203335302033353060408201527f223e000000000000000000000000000000000000000000000000000000000000606082015250565b6000612648606283612595565b9150612653826125a0565b606282019050919050565b7f3c7374796c653e2e62617365207b2066696c6c3a2077686974653b20666f6e7460008201527f2d66616d696c793a2073657269663b20666f6e742d73697a653a20313470783b60208201527f207d3c2f7374796c653e00000000000000000000000000000000000000000000604082015250565b60006126e0604a83612595565b91506126eb8261265e565b604a82019050919050565b7f3c726563742077696474683d223130302522206865696768743d22313030252260008201527f2066696c6c3d22626c61636b22202f3e00000000000000000000000000000000602082015250565b6000612752603083612595565b915061275d826126f6565b603082019050919050565b7f3c7465787420783d223530252220793d223430252220636c6173733d2262617360008201527f652220646f6d696e616e742d626173656c696e653d226d6964646c652220746560208201527f78742d616e63686f723d226d6964646c65223e00000000000000000000000000604082015250565b60006127ea605383612595565b91506127f582612768565b605382019050919050565b7f57617272696f7200000000000000000000000000000000000000000000000000600082015250565b6000612836600783612595565b915061284182612800565b600782019050919050565b7f3c2f746578743e00000000000000000000000000000000000000000000000000600082015250565b6000612882600783612595565b915061288d8261284c565b600782019050919050565b7f3c7465787420783d223530252220793d223530252220636c6173733d2262617360008201527f652220646f6d696e616e742d626173656c696e653d226d6964646c652220746560208201527f78742d616e63686f723d226d6964646c65223e00000000000000000000000000604082015250565b600061291a605383612595565b915061292582612898565b605382019050919050565b7f4c6576656c733a20000000000000000000000000000000000000000000000000600082015250565b6000612966600883612595565b915061297182612930565b600882019050919050565b600061298782611ee1565b6129918185612595565b93506129a1818560208601611efd565b80840191505092915050565b7f53706565643a2000000000000000000000000000000000000000000000000000600082015250565b60006129e3600783612595565b91506129ee826129ad565b600782019050919050565b7f537472656e6774683a2000000000000000000000000000000000000000000000600082015250565b6000612a2f600a83612595565b9150612a3a826129f9565b600a82019050919050565b7f4c6966653a200000000000000000000000000000000000000000000000000000600082015250565b6000612a7b600683612595565b9150612a8682612a45565b600682019050919050565b7f3c2f7376673e0000000000000000000000000000000000000000000000000000600082015250565b6000612ac7600683612595565b9150612ad282612a91565b600682019050919050565b6000612ae88261263b565b9150612af3826126d3565b9150612afe82612745565b9150612b09826127dd565b9150612b1482612829565b9150612b1f82612875565b9150612b2a8261290d565b9150612b3582612959565b9150612b41828761297c565b9150612b4c82612875565b9150612b578261290d565b9150612b62826129d6565b9150612b6e828661297c565b9150612b7982612875565b9150612b848261290d565b9150612b8f82612a22565b9150612b9b828561297c565b9150612ba682612875565b9150612bb18261290d565b9150612bbc82612a6e565b9150612bc8828461297c565b9150612bd382612875565b9150612bde82612aba565b915081905095945050505050565b7f646174613a696d6167652f7376672b786d6c3b6261736536342c000000000000600082015250565b6000612c22601a83612595565b9150612c2d82612bec565b601a82019050919050565b6000612c4382612c15565b9150612c4f828461297c565b915081905092915050565b7f4552433732313a2063616c6c6572206973206e6f7420746f6b656e206f776e6560008201527f72206e6f7220617070726f766564000000000000000000000000000000000000602082015250565b6000612cb6602e83611eec565b9150612cc182612c5a565b604082019050919050565b60006020820190508181036000830152612ce581612ca9565b9050919050565b7f506c656173652075736520616e206578697374696e6720546f6b656e00000000600082015250565b6000612d22601c83611eec565b9150612d2d82612cec565b602082019050919050565b60006020820190508181036000830152612d5181612d15565b9050919050565b7f596f75206d757374206f776e2074686973204e465420746f20747261696e206960008201527f7421000000000000000000000000000000000000000000000000000000000000602082015250565b6000612db4602283611eec565b9150612dbf82612d58565b604082019050919050565b60006020820190508181036000830152612de381612da7565b9050919050565b7f4e487b7100000000000000000000000000000000000000000000000000000000600052601160045260246000fd5b6000612e2482611f93565b9150612e2f83611f93565b9250828201905080821115612e4757612e46612dea565b5b92915050565b7f7b00000000000000000000000000000000000000000000000000000000000000600082015250565b6000612e83600183612595565b9150612e8e82612e4d565b600182019050919050565b7f226e616d65223a2022436861696e20426174746c657320230000000000000000600082015250565b6000612ecf601883612595565b9150612eda82612e99565b601882019050919050565b7f222c000000000000000000000000000000000000000000000000000000000000600082015250565b6000612f1b600283612595565b9150612f2682612ee5565b600282019050919050565b7f226465736372697074696f6e223a2022426174746c6573206f6e20636861696e60008201527f222c000000000000000000000000000000000000000000000000000000000000602082015250565b6000612f8d602283612595565b9150612f9882612f31565b602282019050919050565b7f22696d616765223a202200000000000000000000000000000000000000000000600082015250565b6000612fd9600a83612595565b9150612fe482612fa3565b600a82019050919050565b7f2200000000000000000000000000000000000000000000000000000000000000600082015250565b6000613025600183612595565b915061303082612fef565b600182019050919050565b7f7d00000000000000000000000000000000000000000000000000000000000000600082015250565b6000613071600183612595565b915061307c8261303b565b600182019050919050565b600061309282612e76565b915061309d82612ec2565b91506130a9828561297c565b91506130b482612f0e565b91506130bf82612f80565b91506130ca82612fcc565b91506130d6828461297c565b91506130e182613018565b91506130ec82613064565b91508190509392505050565b7f646174613a6170706c69636174696f6e2f6a736f6e3b6261736536342c000000600082015250565b600061312e601d83612595565b9150613139826130f8565b601d82019050919050565b600061314f82613121565b915061315b828461297c565b915081905092915050565b7f4552433732313a20696e76616c696420746f6b656e2049440000000000000000600082015250565b600061319c601883611eec565b91506131a782613166565b602082019050919050565b600060208201905081810360008301526131cb8161318f565b9050919050565b7f4552433732313a2061646472657373207a65726f206973206e6f74206120766160008201527f6c6964206f776e65720000000000000000000000000000000000000000000000602082015250565b600061322e602983611eec565b9150613239826131d2565b604082019050919050565b6000602082019050818103600083015261325d81613221565b9050919050565b6000613270828561297c565b915061327c828461297c565b91508190509392505050565b7f4e487b7100000000000000000000000000000000000000000000000000000000600052601260045260246000fd5b60006132c282611f93565b91506132cd83611f93565b9250826132dd576132dc613288565b5b828204905092915050565b60006132f382611f93565b91506132fe83611f93565b925082820261330c81611f93565b9150828204841483151761332357613322612dea565b5b5092915050565b600061333582611f93565b91507fffffffffffffffffffffffffffffffffffffffffffffffffffffffffffffffff820361336757613366612dea565b5b600182019050919050565b600061337d82611f93565b915061338883611f93565b92508282039050818111156133a05761339f612dea565b5b92915050565b60006133b182611f93565b91506133bc83611f93565b9250826133cc576133cb613288565b5b828206905092915050565b7f4e487b7100000000000000000000000000000000000000000000000000000000600052603260045260246000fd5b7f45524337323155524953746f726167653a2055524920736574206f66206e6f6e60008201527f6578697374656e7420746f6b656e000000000000000000000000000000000000602082015250565b6000613462602e83611eec565b915061346d82613406565b604082019050919050565b6000602082019050818103600083015261349181613455565b9050919050565b60008190508160005260206000209050919050565b60006020601f8301049050919050565b600082821b905092915050565b6000600883026134fa7fffffffffffffffffffffffffffffffffffffffffffffffffffffffffffffffff826134bd565b61350486836134bd565b95508019841693508086168417925050509392505050565b6000819050919050565b600061354161353c61353784611f93565b61351c565b611f93565b9050919050565b6000819050919050565b61355b83613526565b61356f61356782613548565b8484546134ca565b825550505050565b600090565b613584613577565b61358f818484613552565b505050565b5b818110156135b3576135a860008261357c565b600181019050613595565b5050565b601f8211156135f8576135c981613498565b6135d2846134ad565b810160208510156135e1578190505b6135f56135ed856134ad565b830182613594565b50505b505050565b600082821c905092915050565b600061361b600019846008026135fd565b1980831691505092915050565b6000613634838361360a565b9150826002028217905092915050565b61364d82611ee1565b67ffffffffffffffff81111561366657613665612223565b5b6136708254612440565b61367b8282856135b7565b600060209050601f8311600181146136ae576000841561369c578287015190505b6136a68582613628565b86555061370e565b601f1984166136bc86613498565b60005b828110156136e4578489015182556001820191506020850194506020810190506136bf565b8683101561370157848901516136fd601f89168261360a565b8355505b6001600288020188555050505b505050505050565b7f4552433732313a207472616e736665722066726f6d20696e636f72726563742060008201527f6f776e6572000000000000000000000000000000000000000000000000000000602082015250565b6000613772602583611eec565b915061377d82613716565b604082019050919050565b600060208201905081810360008301526137a181613765565b9050919050565b7f4552433732313a207472616e7366657220746f20746865207a65726f2061646460008201527f7265737300000000000000000000000000000000000000000000000000000000602082015250565b6000613804602483611eec565b915061380f826137a8565b604082019050919050565b60006020820190508181036000830152613833816137f7565b9050919050565b7f4552433732313a20617070726f766520746f2063616c6c657200000000000000600082015250565b6000613870601983611eec565b915061387b8261383a565b602082019050919050565b6000602082019050818103600083015261389f81613863565b9050919050565b7f4552433732313a207472616e7366657220746f206e6f6e20455243373231526560008201527f63656976657220696d706c656d656e7465720000000000000000000000000000602082015250565b6000613902603283611eec565b915061390d826138a6565b604082019050919050565b60006020820190508181036000830152613931816138f5565b9050919050565b600081519050919050565b600082825260208201905092915050565b600061395f82613938565b6139698185613943565b9350613979818560208601611efd565b61398281611f27565b840191505092915050565b60006080820190506139a26000830187612028565b6139af6020830186612028565b6139bc604083018561213e565b81810360608301526139ce8184613954565b905095945050505050565b6000815190506139e881611e52565b92915050565b600060208284031215613a0457613a03611e1c565b5b6000613a12848285016139d9565b91505092915050565b7f4552433732313a206d696e7420746f20746865207a65726f2061646472657373600082015250565b6000613a51602083611eec565b9150613a5c82613a1b565b602082019050919050565b60006020820190508181036000830152613a8081613a44565b9050919050565b7f4552433732313a20746f6b656e20616c7265616479206d696e74656400000000600082015250565b6000613abd601c83611eec565b9150613ac882613a87565b602082019050919050565b60006020820190508181036000830152613aec81613ab0565b905091905056fe4142434445464748494a4b4c4d4e4f505152535455565758595a6162636465666768696a6b6c6d6e6f707172737475767778797a303132333435363738392b2fa2646970667358221220d30fb40a2f5310c0ddbe1814eafc1a2d99e517c76d4f7be03f234af2bc035d9264736f6c63430008110033",
  "linkReferences": {},
  "deployedLinkReferences": {}
}